:020000040800F2
:10000000D80400209D010008EB120008CF11000861
:10001000E9120008A90200089D170008000000006E
:10002000000000000000000000000000EF120008C7
:10003000D102000800000000ED120008F1120008D3
:10004000B7010008B7010008B7010008B7010008B0
:10005000B7010008B7010008B7010008B7010008A0
:10006000B7010008B7010008B7010008B701000890
:10007000B7010008B7010008B7010008B701000880
:10008000B7010008B7010008B7010008B701000870
:10009000B7010008B7010008B7010008B701000860
:1000A000B7010008B7010008B7010008B701000850
:1000B000B701000891130008B7010008B701000854
:1000C000B7010008B7010008B7010008B701000830
:1000D000B701000891170008B7010008B701000830
:1000E000B7010008B7010008B7010008B701000810
:1000F000B7010008B7010008B7010008B701000800
:10010000B7010008B7010008B7010008B7010008EF
:10011000B7010008B7010008B7010008B7010008DF
:10012000B7010008B7010008B7010008B7010008CF
:10013000B70100080000000000000000B70100083F
:10014000B7010008B7010008B7010008B7010008AF
:10015000B7010008B7010008B7010008B70100089F
:10016000B7010008B7010008B7010008B70100088F
:10017000B7010008B70100080000000000000000FF
:10018000B7010008B7010008DFF80CD000F07AF8DA
:1001900000480047DD170008D804002006488047C3
:1001A00006480047FEE7FEE7FEE7FEE7FEE7FEE75C
:1001B000FEE7FEE7FEE7FEE7751300088901000889
:1001C0002DE9F05F0546002092469B46884606468C
:1001D000814640241BE0284641464746224600F01F
:1001E00041F853465A46C01A914110D31146184659
:1001F000224600F028F82D1A67EB01084F462246E8
:100200000120002100F01FF817EB00094E41201ECD
:10021000A4F10104DFDC484631462A464346BDE8E6
:10022000F09FD2B201E000F8012B491EFBD27047CB
:100230000022F6E710B513460A4604461946FFF7B2
:10024000F0FF204610BD202A04DB203A00FA02F11C
:10025000002070479140C2F1200320FA03F31943B4
:1002600090407047202A04DB203A21FA02F0002156
:10027000704721FA02F3D040C2F1200291400843B6
:1002800019467047064C074D06E0E06840F0010350
:1002900094E8070098471034AC42F6D3FFF778FF94
:1002A000C0180008E0180008FEE700000749B0FB8E
:1002B000F1F04FF4AA71484340084FF47A71484373
:1002C00000EE100AB8EE400A7047000020A10700B7
:1002D0007047704790F83510022903D0802141659E
:1002E00001207047052180F835100068016821F071
:1002F000010101600020704770B5044600F0F4F879
:100300000546601C02D004480078044400F0ECF874
:10031000401BA042FAD370BD100000202DE9F84F19
:1003200000224FF0010803254FF00F0E0B6808FA6A
:1003300002F42340A3426ED14E68012E05D0022E56
:1003400003D0112E01D0122E12D186684FEA420C32
:1003500005FA0CF7BE43CF6807FA0CF737438760FE
:100360004668A6430C79C4F30014944034434460B7
:10037000C668570005FA07FC8C6826EA0C06BC40E4
:100380003443C4604C68022C01D0122C13D1D40821
:1003900000EB8404A346D4F8209054074FEAD46AB3
:1003A0000EFA0AF629EA06090E6906FA0AF646EA7C
:1003B0000906CBF8206006680C7926EA0C0604F0E2
:1003C0000304BC40344304604C68E40065D5364CFB
:1003D000266846F480462660246822F0030604F46A
:1003E00080440094314C3444A446D4F8084896071D
:1003F000370F0EFA07F6B4432D4EB04201D1002656
:1004000024E02C4EB04201D101261FE02A4EB0421A
:1004100002D102261AE040E0284EB04201D1032664
:1004200014E0274EB04201D104260FE0254EB04221
:1004300001D105260AE0244EB04201D1062605E08E
:10044000224EB04201D1072600E00826BE402643D6
:10045000CCF808681E4E34684F689C43FF0300D5F3
:100460001C4334601A4C241D26684F689E43BF030A
:1004700000D51E432660164E083634684F689C43EC
:10048000FF0200D51C433460114E0C3634684F68AF
:100490009C43BF0200D51C433460521C102AFFF459
:1004A00045AFBDE8F88F00004438024000300140FD
:1004B000000002400004024000080240000C02401C
:1004C000001002400014024000180240001C0240CC
:1004D000003C01400069084000D0012070470AB18B
:1004E000816170470904FBE701488068704700009C
:1004F0001000002002488168027811448160704732
:10050000100000200B4810B5016841F40071016033
:10051000016841F480610160016841F4807101600B
:10052000032000F06FF8002000F006F800F024F837
:10053000002010BD003C024070B50D4D04464FF444
:100540007A712878B1FBF0F00A490968B1FBF0F044
:1005500000F002FB48B9102C07D200222146501EA1
:1005600000F030F800206C6070BD012070BD00000C
:10057000100000201C0000200A4808B5016841F462
:1005800080410160006800F4804000900548001F31
:10059000016841F080510160006800F080500090D7
:1005A00008BD000044380240002809DB00F01F02AB
:1005B000012191404009800000F1E020C0F80011C5
:1005C00070470000F0B40E4B1B680C46C3F30223C7
:1005D000C3F10705042D00D90425191D072901D2EF
:1005E000002300E0DB1E012606FA05F1491E21402A
:1005F00099409E40761E16403143F0BC01F0CFB8C2
:100600000CED00E0064900F0070208684FF6FF0312
:10061000184040EA0220034A104308607047000077
:100620000CED00E00000FA052DE9F0470E4605004C
:1006300065D0DFF81481D8F80000F7B200F00F00A1
:10064000B04207D288F80070D8F8000000F00F0020
:10065000B04254D128683D4C810712D5400703D5DC
:10066000206840F4E05020602878000703D5206817
:1006700040F4604020602068A96820F0F000084342
:1006800020602878C0072DD03049686808390128D3
:1006900012D0022813D0032811D009688907002935
:1006A0002DDA216821F0030101432160FFF71CFFCF
:1006B000814641F2883A0EE009688903EFE709684C
:1006C0008901ECE7FFF710FFA0EB0901514502D9C2
:1006D0000320BDE8F0872068696800F00C00B0EBEB
:1006E000810FEFD1D8F80010404601F00F01B14260
:1006F00007D90770006800F00F00B04201D0012058
:10070000E7E72878400705D52068E96820F4E0503D
:10071000084320602878000706D52068296920F45E
:10072000604040EAC100206000F038F82168084AC3
:10073000C1F30311515CC8400649086006480068CF
:10074000FFF7FAFE0020C4E7003C024008380240F0
:10075000A81800081C0000201400002004480549C7
:1007600000680968044AC1F38221515CC84070479F
:100770001C00002008380240B81800080448054949
:1007800000680968044AC1F34231515CC8407047AF
:100790001C00002008380240B8180008154810B5A1
:1007A000006810F00C02144813D04110042A0FD036
:1007B000082A0ED10F4C241F2268236802F03F0242
:1007C0005B0207D52068C0F38810A0FB010106E09A
:1007D000084610BD2168C1F38811A1FB0001002368
:1007E000FFF7EEFC2168C1F30141491C4900B0FB51
:1007F000F1F010BD083802400024F4002DE9F84F54
:10080000040076D02078DFF838A3CE4DC00749D059
:10081000DAF800105046C1F38101012908D00068C0
:10082000C0F3810002280AD1281D0068400206D5C5
:100830002868800336D560680028E2D032E060681E
:10084000B0F5803F10D0B0F5A02F286810D020F46C
:1008500080302860286820F4802028606068A0B17B
:10086000FFF742FE06460CE0286840F48030F4E7CB
:1008700040F480202860F7E7FFF736FE801B6428ED
:1008800073D828688003F7D50CE0FFF72DFE0646E5
:1008900005E000BFFFF728FE801B6428F0D8286819
:1008A0008003F7D42078DFF8A08280074FF000099A
:1008B0003ED5DAF80010504611F00C0F09D0006850
:1008C000C0F3810002280BD19D48001F0068400240
:1008D00006D42868800715D5E068012809D111E001
:1008E000E068B8B10120C8F80000FFF7FDFD06463A
:1008F00005E020E1FFF7F8FD801B0228C0D828683A
:100900008007F7D52868216920F0F80040EAC10087
:1009100028600DE0C8F80090FFF7E6FD064604E009
:10092000FFF7E2FD801B02281FD828688007F7D454
:100930002078000722D5824E844861696C3671B1F7
:1009400001210160FFF7D0FD074604E0FFF7CCFD71
:10095000C01B022809D830688007F7D50EE0C0F820
:100960000090FFF7C1FD074605E082E0FFF7BCFD00
:10097000C01B02287DD830688007F7D42078400754
:1009800068D5DFF8BCB100270BF1380BDBF80000AD
:10099000C0000BD4DBF8001041F08051CBF8001000
:1009A000DBF80000012700F080500090684E3068AE
:1009B000C00510D4306840F480703060FFF794FDBB
:1009C000009005E0FFF790FD0099401A022850D8EA
:1009D0003068C005F6D55A4EA068683601280FD099
:1009E0000528306810D020F001003060306820F019
:1009F00004003060A068B8B1FFF776FD00900FE00A
:100A0000306840F00100F4E740F004003060F7E7A0
:100A1000FFF76AFD0099411A41F28830814266D899
:100A200030688007F4D50EE0FFF75EFD009007E028
:100A3000FFF75AFD0099411A41F28830814256D899
:100A400030688007F4D42FB1DBF8001021F080511A
:100A5000CBF80010A069D0B3DAF800205146C2F3F9
:100A60008102022A4AD00228484607D0C8F860000E
:100A700000E03CE0FFF738FD04463BE04746C8F89D
:100A80006000FFF731FD064605E000BFFFF72CFDD3
:100A9000801B02282BD828688001F7D4D4E90701ED
:100AA0000843A16A2B4A490802EB0141626A41EA04
:100AB0008211084394F82C1040EA01612048001F7D
:100AC000016001203866FFF70FFD044605E034E0C1
:100AD000FFF70AFD001B022809D828688001F7D516
:100AE0002BE000BFFFF700FD001B022802D9032006
:100AF000BDE8F88F28688001F4D41EE00128F7D003
:100B00000868E26900F48001914214D1226A00F081
:100B10003F0191420FD147F6C071626A0140914294
:100B200009D1A26A00F44031914204D1E16A00F097
:100B30007060884201D00120DAE70020D8E7000089
:100B4000083802400038024000004742800E474209
:100B5000007000400000FFFF10B5401EB0F1807F24
:100B600001D3012010BD4FF0E02460610F21601718
:100B700000F015FE0020A06107202061002010BDBC
:100B80007047704770B590F83C20012A32D001249C
:100B900080F83C40022280F83D2003685A689D6836
:100BA00022F070060A6832435A60134B02689A4278
:100BB00014D0B2F1804F11D0104B9A420ED0104B8E
:100BC0009A420BD00F4B9A4208D00F4B9A4205D055
:100BD0000E4B9A4202D00E4B9A4204D1496825F03E
:100BE00080031943916080F83D40002180F83C105B
:100BF000084670BD022070BD0000014000040040A6
:100C000000080040000C004000040140004001408A
:100C10000018004010B5040003D094F83D0010B156
:100C200007E0012010BD002084F83C00204600F0C1
:100C30000DF8022084F83D00211D206800F0B6FB6D
:100C4000012084F83D00002010BD000008B50068B8
:100C50000B49884212D10B48016841F00201016042
:100C60000068002200F00200009011461D20FFF7EE
:100C7000A9FCBDE808401D20FFF796BC08BD000098
:100C800000040040403802400168CA6842F0010296
:100C9000CA600068816801F00701062903D0016875
:100CA00041F001010160002070470168CA6822F02C
:100CB0000102CA600068016A41F21112114207D1B3
:100CC000016A9210114203D1016821F00101016013
:100CD0000020704770B5044690F83C00012817D0FA
:100CE000012584F83C50022084F83D002068826889
:100CF00022F0770222F47F4282600868502830D0C8
:100D00000DDC20284DD005DC98B310283BD148E0FD
:100D1000022070BD302844D0402834D139E060280A
:100D200028D0702806D0B0F5805F2CD0B0F5005FD9
:100D300029D10AE0CB68D1E90121206800F09AFBB3
:100D40002068816841F0770109E0CB68D1E9012191
:100D5000206800F08FFB2068816841F48041816049
:100D600011E0CA684968206800F096FB50212068AD
:100D700007E016E0CA684968206800F09EFB602121
:100D8000206800F081FB84F83D50002084F83C008E
:100D900070BDCA684968206800F07EFB4021206869
:100DA000EFE7226801461046EBE7704770B504464E
:100DB000006801694FF00005C943890715D4C1686F
:100DC000C943890711D4E91E0161012020772068F9
:100DD00080698007204602D0FFF7E7FF04E000F0BB
:100DE00098F8204600F096F8257720680169C943F5
:100DF000490717D4C168C943490713D46FF00401E8
:100E00000161022020772068806910F4407F20462D
:100E100002D0FFF7CAFF04E000F07BF8204600F0A4
:100E200079F8257720680169C943090716D4C16894
:100E3000C943090712D46FF008010161042020772B
:100E40002068C0698007204602D0FFF7AEFF04E0AB
:100E500000F05FF8204600F05DF825772068016912
:100E6000C943C90617D4C168C943C90613D46FF072
:100E700010010161082020772068C06910F4407FCC
:100E8000204602D0FFF791FF04E000F042F8204630
:100E900000F040F8257720680169C943C90708D1E7
:100EA000C168C943C90704D1891E0161204600F009
:100EB00032F820680169C943090609D4C168C943E9
:100EC000090605D46FF0800101612046FFF758FE46
:100ED00020680169C943490609D4C168C943490664
:100EE00005D46FF040010161204600F015F820683C
:100EF0000169C94389060BD4C168C943890607D46F
:100F00006FF0200101612046BDE87040FFF739BE57
:100F100070BD7047704770477047704770B5026882
:100F200004461068D168536910F00F0F52D003F0D7
:100F3000010501F490762E435FD0C20705D0CA05A3
:100F400003D5E26B42F00102E263420705D5DA07FE
:100F500003D0E26B42F00202E263820705D5DA07B2
:100F600003D0E26B42F00402E263020707D501F00E
:100F700020022A4303D0E26B42F00802E263E26BF4
:100F8000002A33D0800604D5880602D5204600F01A
:100F9000BCFA20684069E16BC0F38010090700D4F7
:100FA00028B3204600F0A3FA2068416949061AD503
:100FB000416921F040014161606BA0B11B490165AD
:100FC000606BFFF787F9002810D0606B016DBDE8FA
:100FD00070400847830610D58B060ED52046BDE825
:100FE000704000F092BA2046FFF797FF70BD204690
:100FF000FFF793FF0020E06370BD030606D50B06E4
:1010000004D52046BDE8704000F05EBB4006F3D535
:101010004806F1D5D168204621F04001D160202159
:1010200084F8391000F0D2F870BD0000DF14000819
:1010300070B5040004D094F83900002510B106E022
:10104000012070BD84F83850204600F023F8242099
:1010500084F839002068C16821F40051C16020463D
:1010600000F09EFA2068016921F490410161206836
:10107000416921F02A0141612068C16841F40051B1
:10108000C160E563202084F8390084F83A0000202C
:1010900070BD000010B586B0044614216846FFF705
:1010A000C7F818492068884229D1174800210268EA
:1010B00042F010020260006800F010000590124833
:1010C0001438026842F001020260006800F001007A
:1010D00005904FF4C06000900220CDE9010103208B
:1010E00003900720049069460848FFF717F900228B
:1010F00011462520FFF766FA2520FFF755FA06B0BE
:1011000010BD0000001001404438024000000240C1
:1011100070472DE9F843044690F839001F461646FB
:101120000D46202850D1B5B1AEB194F83800012851
:101130004AD0012084F838004FF00008C4F83C8001
:10114000212084F83900FFF7CFF9A6848146E68490
:1011500084F8388026E00120BDE8F883E08C401E4A
:10116000E084A0684B46B0F5805F4FF000024FF07E
:1011700080012046009703D000F0D7FAE8B90DE0CF
:1011800000F0D3FAC8B928882168C0F30800486085
:10119000206908B16D1C05E0AD1C03E0216815F85D
:1011A000010B4860E08C0028D8D14B46002240213A
:1011B0002046009700F0B9FA08B10320CCE72020C0
:1011C00084F839000020C7E70220C5E77047FEE732
:1011D00030B587B014216846FFF72AF81948002473
:1011E000016841F080010160016801F08001059112
:1011F000016841F004010160016801F004010591FA
:10120000016841F00101016000680F4D00F001002C
:101210000590002202212846FFF761F90220009084
:101220000120CDE90104694628460394FFF776F8CA
:101230000420CDE90004694628460294FFF76EF8C1
:1012400007B030BD303802400008024010B586B00B
:1012500000241648009401940294039404941249C3
:10126000059401603121C0E901140121C0E9031492
:101270008461FFF7CFFC08B1FFF72BF84FF48050E3
:10128000009069460948FFF725FD08B1FFF721F8EE
:10129000049404A905480594FFF774FC002801D0C4
:1012A000FFF717F806B010BD0004004054000020FE
:1012B0000C4810B50A4901604FF4E131416000214A
:1012C00081600C22C160C0E904128161C161FFF735
:1012D000AFFE002803D0BDE81040FEF7FABF10BDF6
:1012E0000010014094000020FEE7704770477047EF
:1012F000FFF700B930B593B030216846FEF798FF8C
:1013000014210CA8FEF794FF18480025016841F04D
:1013100080510160006800F080501190144801680D
:1013200041F4804101600068022400F48040119083
:1013300001200090000401908001CDE9064008AA38
:101340000420322182E813000B906846FFF756FA1A
:101350000CA90F2081E83100E002CDE90F05012141
:101360000CA8FFF761F913B030BD0000403802400F
:10137000007000400548016841F4700101600349B4
:101380004FF00060803908607047000088ED00E091
:1013900010B50448FFF70AFD03480168491C0160C5
:1013A00010BD00005400002000000020F0B50268CD
:1013B000254C264D264E274F274B4FF0804CA04200
:1013C00009D0604507D0A84205D0B04203D0B8424A
:1013D00001D0984204D122F0700E4A6842EA0E020F
:1013E000A0421BD0604519D0A84217D0B04215D0FA
:1013F000B84213D0984211D0184DA8420ED0184DC3
:10140000A8420BD0174DA84208D0174DA84205D0CE
:10141000164DA84202D0164DA84203D122F44075C1
:10142000CA682A434D6922F080022A4302608A6812
:10143000C2620A688262A04201D0984201D1096961
:10144000016301214161F0BD000001400004004042
:1014500000080040000C0040000401400040014032
:10146000004401400048014000180040001C0040BA
:101470000020004010B5846842EA032224F47F442F
:101480000A432243826010BD826822F070020A4340
:1014900042F007018160704710B5036A046A24F0C6
:1014A00001040462846924F0F00444EA021423F085
:1014B0000A020A438461026210BD10B5036A23F078
:1014C000100303628369046A23F4704343EA02321F
:1014D00024F0A00343EA01118261016210BD10B53E
:1014E000806B0021C185C184FFF717FD10BD016825
:1014F000CA6822F49072CA6001684A6922F0010247
:101500004A61202180F83A10704710B590F83A10DF
:10151000222901D0022010BD8168B1F5805F11D071
:101520000169002901681FD0496801F07F03816AC1
:101530004A1C82620B70C18D491E0904090CC185C9
:1015400018D02BE00269816A002A0268526805D02F
:10155000D2B20A80816A491C8162ECE7C2F30802B8
:101560000A80816A891CF7E74A68816A4B1C83629A
:101570000A70E0E70168CA6822F02002CA600168C8
:10158000CA6822F48072CA6001684A6922F00102C6
:101590004A61202180F83A10FFF7BAFD002010BD03
:1015A0002DE9F041044600680169E26821F44051E8
:1015B000114301612169A068E2690843616911432F
:1015C00008432168CA6849F20C639A430243CA601F
:1015D00020684169A26921F4407111434161E069C9
:1015E000192764253226B0F5004F354A3549206861
:1015F0004FF0000806D0884201D0904236D1FFF764
:10160000BDF835E0884201D0904202D1FFF7B6F82C
:1016100001E0FFF7A3F861684A18A0FB070148EB57
:101620000803FEF7CDFD0146B0FBF5F00201B1FB6A
:10163000F5F06FF01803584301EB800006EBC00093
:10164000B0FBF5F000F0F80002EB4002B1FBF5F062
:10165000584301EB800006EBC000B0FBF5F000F052
:101660000700216810448860BDE8F081FFF776F834
:1016700061688B0F8A00A0FB0701FEF7A1FD014600
:10168000B0FBF5F06FF01802504301EB800006EB61
:101690000010B0FBF5F000F0F002B1FBF5F002EB4A
:1016A0000012B1FBF5F06FF01803584301EB800016
:1016B00006EB0010B0FBF5F000F00F00D1E70000E2
:1016C000001401400010014090F83910212901D088
:1016D000022070478168B1F5805F016A0BD04A1C17
:1016E0000262026809785160C18C491E0904090C24
:1016F000C1840ED017E009880268C1F30801516067
:1017000001690029016A02D0491C0162ECE7891CC9
:10171000FBE70168CA6822F08002CA600068C168FD
:1017200041F04001C160002070472DE9F04198462A
:1017300017460E460446069D1DE0681C1BD02DB1C1
:10174000FEF7D2FEA0EB0800A84214D92068C168B9
:1017500021F4D071C1602068416921F0010141612B
:10176000202084F8390084F83A00002084F83800FA
:101770000320BDE8F0812068006836EA000004D04C
:101780000020B842D9D00020F3E70120F9E700009B
:101790000148FFF7C3BB000094000020FEE70907E3
:1017A000090E002804DB00F1E02080F800147047E7
:1017B00000F00F0000F1E02080F8141D704702E0F7
:1017C00008C8121F08C1002AFAD1704770470020CC
:1017D00001E001C1121F002AFBD17047FEF792FE03
:1017E000FFF788FDFFF7F4FCFFF730FDFFF760FD22
:1017F000284D294C0026012202212846FEF76FFEC3
:101800000020FEF779FD002202212846FEF767FE40
:10181000266002E02148FFF737FA04212846FEF748
:1018200059FE0028F6D002E01C48FFF73EFA0421DA
:101830002846FEF74FFE0128F6D020686060FEF7CC
:1018400035FD84ED020ABDEEC00A4FF47A71144AE8
:1018500010EE100AE06090FBF1F11170642190FB32
:10186000F1F30A2193FBF1F701FB1733537090FB5F
:10187000F1F393FBF1F701FB1733937090FBF1F356
:1018800001FB1300D0706423322205490548FFF79D
:1018900040FCB0E700080240000000205400002097
:1018A0002000002094000020000000000000000044
:1018B00001020304060708090000000001020304F6
:1018C000E01800080000002020000000BE170008FB
:1018D0000019000820000020B8040000CE170008FE
:1018E00000000000000000000000000000000000F8
:1018F0000100000010000000000000000024F400BF
:040000050800018965
:00000001FF
